:020000040800F2
:10000000C0A2002055020008970900086D050008ED
:1000100093090008D1030008A112000800000000A5
:100020000000000000000000000000009D0100082A
:100030009504000800000000F1010008A90C000868
:100040006F0200086F0200086F0200086F020008CC
:100050006F0200086F0200086F0200086F020008BC
:100060006F0200086F0200086F0200086F020008AC
:100070006F0200086F0200086F0200086F0200089C
:100080006F0200086F0200086F0200086F0200088C
:100090006F0200086F0200086F0200086F0200087C
:1000A0006F0200086F0200086F0200086F0200086C
:1000B0006F0200086F0200086F0200086F0200085C
:1000C0006F0200086F0200086F0200086F0200084C
:1000D0006F0200085D0E00086D0E00087D0E00081E
:1000E0006F0200086F0200086F0200086F0200082C
:1000F0006F0200086F0200086F0200086F0200081C
:100100006F0200086F0200086F0200086F0200080B
:100110006F0200086F020008450D00086F0200081A
:100120006F0200086F0200086F0200086F020008EB
:100130006F0200086F0200086F0200086F020008DB
:100140006F0200086F0200086F0200086F020008CB
:100150006F0200086F0200086F0200088D0E000891
:100160006F0200086F0200086F0200086F020008AB
:100170006F0200086F0200086F0200086F0200089B
:100180006F0200086F020008DFF80CD000F0ACF836
:1001900000480047E51B0008C0A200202A4B196850
:1001A0000868B0E8F04F80F30988BFF36F8F4FF015
:1001B000000080F3118870470000000006480068C6
:1001C000006880F3088862B661B6BFF34F8FBFF353
:1001D0006F8F00DF00BF00BF08ED00E0DFF80C000C
:1001E000016841F470010160704700BF88ED00E0D4
:1001F000EFF30980BFF36F8F134B1A681EF0100FD7
:1002000008BF20ED108A20E9F04F106008B44FF0CD
:10021000100080F31188BFF34F8FBFF36F8F02F090
:1002200079FA4FF0000080F3118808BC196808685B
:10023000B0E8F04F1EF0100F08BFB0EC108A80F34A
:100240000988BFF36F8F70473C000020EFF30580F3
:10025000704700000648804706480047FEE7FEE773
:10026000FEE7FEE7FEE7FEE7FEE7FEE7FEE7FEE766
:10027000DD0C000889010008D2B201E000F8012B72
:10028000491EFBD270470022F6E710B513460A4616
:1002900004461946FFF7F0FF204610BD421C10F837
:1002A000011B0029FBD1801A7047034611F8012B6E
:1002B00000F8012B002AF9D11846704730B50B46DB
:1002C000014600202022012409E021FA02F59D4286
:1002D00005D303FA02F5491B04FA02F52844151E5A
:1002E000A2F10102F1DC30BD064C074D06E0E068EA
:1002F00040F0010394E8070098471034AC42F6D36D
:10030000FFF746FFC42D0008E42D00081FB50020AC
:100310001B4A0123CDE901200093039003464FF4CB
:10032000007218A11A4802F06DFB0020194A02233E
:10033000CDE901200093039003464FF4007216A10B
:10034000184802F05FFB0020174A0323CDE9012083
:100350000093039003464FF4007214A1164802F074
:1003600051FB0020154A0423CDE90120009303909E
:1003700003464FF4007212A1144802F043FB1FBD64
:1003800000000020765461736B5573657249460016
:10039000E127000804000020765461736B4C45444B
:1003A00000000000892500080800002076546173D1
:1003B0006B4D736750726F00612600080C000020BF
:1003C000765461736B537461727400007326000875
:1003D00000BFFEE7014609B90B487047012901D16A
:1003E0000A48FAE7022901D10948F6E7032901D1B1
:1003F0000020F2E7042901D10020EEE7052901D110
:100400000448EAE70020E8E7540100207C090020C6
:10041000A4110020CC19002008B525208DF800007B
:1004200001208DF8010000208DF8020001208DF8D8
:100430000300684600F0B0FA26208DF80000012085
:100440008DF8010000208DF8020001208DF80300D6
:10045000684600F0A1FA27208DF8000001208DF8F1
:10046000010000208DF8020001208DF8030068468D
:1004700000F092FA47208DF8000001208DF801006D
:1004800000208DF8020001208DF80300684600F07E
:1004900083FA08BD7047F0B50A4600210023002406
:1004A00000BF3DE0012505FA01F3156805EA0304E4
:1004B0009C4234D105684F000326BE40B543056019
:1004C00015794E00B5400668354305601579012D54
:1004D00002D01579022D16D185684F000326BE4043
:1004E000B543856055794E00B540866835438560D3
:1004F000456801268E40B5434560456896798E4033
:10050000B6B235434560C5684F000326BE40B543CB
:10051000C560D5794E00B540C6683543C560491CF5
:100520001029BFD3F0BDF0B5002300244D07ED0E18
:1005300002FA05F3CE1000F1200555F826504E07BB
:10054000F70E0F26BE40B543CF1000F1200646F847
:100550002750CE1000F1200555F8265045EA030437
:10056000CE1000F1200545F82640F0BD08A100207E
:100570000AE00A5C114B9A8000BF104A128812F000
:10058000400FFAD0421CD0B22A28F2D300BFFEE7B7
:100590000D0A456E74657220486172644661756C1F
:1005A000745F48616E646C65722C20537973746556
:1005B0006D2048616C742E0D0A000000001001408F
:1005C00000B587B00121084600F02CFA0121102067
:1005D00000F048FA07220921AA48FFF7A4FF0722E2
:1005E0000A21A848FFF79FFF00208DF81A0001207C
:1005F0008DF81B0002208DF81800000205900220E3
:100600008DF8190005A99F48FFF745FF02208DF8D6
:1006100018004002059005A99A48FFF73CFF4FF4E7
:10062000E13001900020ADF80800ADF80A00ADF807
:100630000C00ADF810000C20ADF80E0001A9924896
:1006400000F090FC012240F225518F4800F065FC3B
:1006500001218D4800F02BFC40218B4800F01EFC4E
:100660000121084600F0DEF90121480400F0EAF912
:10067000072203218348FFF756FF00208DF81A0058
:1006800001208DF81B0002208DF818008DF818004D
:100690000820059002208DF8190005A97948FFF778
:1006A000FAFE4FF4165001900020ADF80800ADF8A6
:1006B0000A00ADF80C00ADF810000420ADF80E00F3
:1006C00001A9724800F04EFC012240F225516F480A
:1006D00000F023FC01216D4800F0E9FB40216B484C
:1006E00000F0DCFB0121022000F09CF901208DF8D4
:1006F000180000208DF81A008DF81B0003208DF8DB
:1007000019000420059005A96148FFF7C4FE0121E6
:10071000022000F087F90121880400F093F90722F4
:100720000A215B48FFF7FFFE07220B215848FFF71D
:10073000FAFE00208DF81A0001208DF81B0002201F
:100740008DF818004002059002208DF8190005A9C7
:100750004F48FFF7A0FE02208DF818008002059098
:1007600005A94B48FFF797FE4FF416500190002063
:10077000ADF80800ADF80A00ADF80C00ADF81000B7
:100780000C20ADF80E0001A9424800F0EBFB01225D
:1007900040F225513F4800F0C0FB01213D4800F0E8
:1007A00086FB40213B4800F079FB0121442000F00A
:1007B00039F90121202000F055F908220E21364890
:1007C000FFF7B1FE082207213448FFF7ACFE0822EC
:1007D00011463148FFF7A7FE08220F212E48FFF7E8
:1007E000A2FE00208DF81A0001208DF81B000220C7
:1007F0008DF818004003059002208DF8190005A916
:100800002548FFF748FE02208DF81800802005904B
:1008100005A92248FFF73FFE02208DF81800C0010D
:10082000059005A91C48FFF736FE02208DF8180038
:100830008003059005A91848FFF72DFE4FF4E1301D
:1008400001900020ADF80800ADF80A00ADF80C00EA
:10085000ADF810000C20ADF80E0001A9104800F012
:1008600081FB012240F225510D4800F056FB012189
:100870000B4800F01CFB4021094800F00FFB07B0BB
:1008800000BD000000000240001001400044004094
:1008900000040240004800400018024000080240E6
:1008A000001401400448006910F4807F01D1012048
:1008B00070470020FCE700000020024010B5FFF761
:1008C000F1FF20B100F006F808B1012010BD0020B2
:1008D000FCE700000448006810F4005F01D101202B
:1008E00070470020FCE7000010080240044800693F
:1008F00010F4006F01D1012070470020FCE70000D8
:10090000002002400448006810F0040F01D10120CB
:1009100070470020FCE70000101C024004480068FB
:1009200010F0080F01D1012070470020FCE7000003
:10093000101C02400448006810F4006F01D101202F
:1009400070470020FCE700001014024004480068D3
:1009500010F0800F01D1012070470020FCE700005B
:10096000101802400448006810F4004F01D1012023
:1009700070470020FCE70000101C024010B5FFF794
:1009800091FF20B1FFF7A6FF08B1012010BD0020A4
:10099000FCE700BFFEE7704770B5002100230F227F
:1009A000C47824B3174C246804F4E064C4F5E0640C
:1009B000C4F30721C1F10404E3B20A4144789C4026
:1009C000E1B28478144021430C07210E0E4C0578C7
:1009D0006155047804F01F050124AC4005786D11C1
:1009E0004FF0E02606EB8505C5F8004109E00478E4
:1009F00004F01F040125A540044C0678761144F844
:100A0000265070BD0CED00E000E400E080E100E065
:100A100002490143024A1160704700000000FA05D4
:100A20000CED00E029B1064A12680243044B1A603B
:100A300004E0034A12688243014B1A6070470000C9
:100A40003038024029B1064A12680243044B1A604A
:100A500004E0034A12688243014B1A6070470000A9
:100A60004038024029B1064A12680243044B1A601A
:100A700004E0034A12688243014B1A607047000089
:100A800044380240F0B5002100220024022500264F
:100A90000223324F3F6807F00C0121B1042905D031
:100AA000082937D105E02E4F076036E02D4F07604B
:100AB00033E02A4F3F1F3F68C7F38056274F3F1F41
:100AC0003F6807F03F036EB1264FB7FBF3F7DFF83F
:100AD0008CC0ACF1040CDCF800C0CCF3881C07FB24
:100AE0000CF40CE01E4FB7FBF3F7DFF870C0ACF16D
:100AF000040CDCF800C0CCF3881C07FB0CF4174F87
:100B00003F1F3F68C7F301477F1C7D00B4FBF5F72B
:100B1000076002E0124F076000BF00BF0F4F3F6841
:100B200007F0F0010909104F7A5C0768D740476069
:100B30000A4F3F6807F4E051890A0B4F7A5C476817
:100B4000D7408760054F3F6807F46041490B064F67
:100B50007A5C4768D740C760F0BD000008380240A3
:100B60000024F40040787D01150000201CB501210F
:100B70000220FFF757FF01208DF8040000208DF8B8
:100B800006008DF8070003208DF805000420009072
:100B900069460248FFF77FFC1CBD000000040240CC
:100BA0007047000004200149088070471804024083
:100BB00004200149088070471A0402400CB5002047
:100BC000019000903448006840F480303249086059
:100BD00000BF3148006800F4003000900198401CCC
:100BE0000190009818B90198B0F5A04FF1D12A48AA
:100BF000006810F4003F02D00120009001E00020C6
:100C000000900098012845D123484030006840F00A
:100C100080502149403108602048006840F440403D
:100C20001E4908601C48083000681B4908310860EC
:100C30000846006840F4004008600846006840F438
:100C4000A05008601648091F0860081F006840F09F
:100C50008070091F086000BF0F48006810F0007F17
:100C6000FAD040F205700F4908600B480830006860
:100C700020F003000849083108600846006840F089
:100C80000200086000BF04480830006800F00C0053
:100C90000828F8D10CBD0000003802400070004068
:100CA00019544007003C024010B500BF1020EFF37C
:100CB000118180F31188BFF34F8FBFF36F8F00BF97
:100CC00001F058FF18B14FF0805003490860002030
:100CD00080F3118800BF10BD04ED00E010B5154889
:100CE000006840F47000134908601348006840F041
:100CF00001001149086000200F49083108600E48C2
:100D000000680E4908400C4908600D48091D08603C
:100D1000081F006820F48020091F08600020064991
:100D20000C310860FFF74AFF4FF00060014980393D
:100D3000086010BD88ED00E000380240FFFFF6FEBD
:100D40001030002410B50121064800F02AF840B107
:100D500005480068401C044908600121014800F072
:100D600011F810BD001000401000002021B10288D1
:100D700042F08002028004E002884FF67F731A403E
:100D800002807047CA430282704721B1028842F054
:100D90000102028004E002884FF6FE731A400280CE
:100DA000704730B50246002000230024158A05EA6A
:100DB0000103958905EA010413B10CB1012000E09B
:100DC000002030BD1AB183890B43838102E08389FF
:100DD0008B4383817047000000220288184B9842A1
:100DE0000ED0184B98420BD0B0F1804F08D0164B64
:100DF000984205D0154B984202D0154B984204D129
:100E00004FF68F731A404B881A43124B984207D003
:100E1000114B984204D04FF6FF431A400B891A43F6
:100E200002804B68C3620B880385054B984202D051
:100E3000044B984201D18B7A038601238382704749
:100E40000000014000040140000400400008004090
:100E5000000C0040001000400014004010B5024893
:100E600000F0F3F810BD00005401002010B5024856
:100E700000F0EBF810BD00007C09002010B502481E
:100E800000F0E3F810BD0000A411002010B50248E6
:100E900000F0DBF810BD0000CC19002001F4007256
:100EA000B2F5007F00D100BFCA430280704721B174
:100EB000828942F40052828104E082894DF6FF73F8
:100EC0001A408281704770B5024600240023002535
:100ED0000020A1F510666A3E00D100BFC1F34215A3
:100EE00001F01F03012606FA03F3012D02D19689B2
:100EF000334006E0022D02D1168A334001E0968A83
:100F000033400C12012606FA04F41688344013B15B
:100F10000CB1012000E0002070BDF0B503460024B4
:100F2000002600250020A1F510676A3F00D100BF10
:100F30001846C1F3421401F01F06012707FA06F50F
:100F4000012C01D10C3004E0022C01D1103000E062
:100F500014301AB107682F43076002E00768AF43F7
:100F60000760F0BD2DE9FF4705460E460024A14667
:100F700000BFA046B08900B100BF2C8A24F44054C1
:100F8000F08804432C82AC8941F20C608443B08821
:100F900031890843718908430443AC81AC8A24F445
:100FA0004074B0890443AC826846FFF76BFD20486B
:100FB000854202D01F48854202D1DDF80C9001E045
:100FC000DDF80890A88910F4004F08D009EBC9009B
:100FD00000EB091031684900B0FBF1F707E009EBBD
:100FE000C90000EB091031688900B0FBF1F76420FB
:100FF000B7FBF0F004012009642101FB1078A889F7
:1010000010F4004F08D0322000EBC800B0FBF1F024
:1010100000F00700044308E0322000EB08106421D0
:10102000B0FBF1F000F00F0004432C81BDE8FF8716
:10103000001001400014014001468888C0F30800F8
:101040007047C1F308028280704770B5044640F2D1
:1010500025512068FFF737FFE0B12068FFF7ECFF6C
:10106000C5B2E18AA0684554E08A401C80B2E082A3
:10107000E189884201DB0020E082608BE1898842BF
:1010800002DA608B401C6083606A10B12846616A96
:10109000884700BF40F227712068FFF714FF08B3AC
:1010A000A08A60B9002240F227712068FFF735FF5F
:1010B000012240F226612068FFF72FFF37E0638AA4
:1010C0006268D15C2068FFF7BCFF608A401C80B278
:1010D0006082A189884201DB00206082A08A401ED4
:1010E000A08224E040F226612068FFF7ECFEF0B118
:1010F000A08A50B9002240F226612068FFF70DFF58
:10110000206AA0B1206A804711E0638A6268D15CDE
:101110002068FFF796FF608A401C80B26082A18938
:10112000884201DB00206082A08A401EA08270BD40
:10113000F8B504460E461746002529E00EE00120CA
:1011400000F0E3F8A08A0090002000F0DEF8A0890B
:10115000BDF80010884200DD01E000BFEFE700BFEE
:10116000705D228A61688854012000F0CEF8208AE0
:10117000401C80B22082A189884201DB00202082AD
:10118000A08A401CA082002000F0BFF8681C85B235
:10119000BD42D3DB012240F227712068FFF7BDFE7C
:1011A000F8BD00002B482C4908602C4848602C48AA
:1011B00088604FF480608881C8810020088248825E
:1011C000C882088348838882C861086248622548CB
:1011D00025490860254848602548886001208881A5
:1011E000C002C881002008824882C88208834883E0
:1011F0008882C861086248621E481F4908601F480B
:1012000048601F4888604FF480608881C881002052
:1012100008824882C8820883488388821948C86146
:10122000194808621948486219481A4908601A485A
:1012300048601A4888604FF480608881C881002027
:1012400008824882C882088348838882C86108620D
:101250004862704700100140540100207C010020CA
:101260007C050020004400407C0900201400002080
:10127000A409002000480040A4110020CC11002047
:10128000CC150020A50B0008B10B0008A10B00082D
:1012900000140140CC190020F4190020F41D002096
:1012A00000BFFEE70FB4054B10B503A9044A02982E
:1012B00000F02EF810BC5DF814FB0000D31B0008F2
:1012C000A00000200FB4084B10B504A902AA03988F
:1012D00000F01EF8044602A9002000F0F5F82046B0
:1012E00010BC5DF814FB0000C914000802E008C837
:1012F000121F08C1002AFAD170477047002001E090
:1013000001C1121F002AFBD1704780F3108870477B
:101310002DE9FF4F8BB09A460F4605460026C9E0DF
:10132000252837D100246D1C6649A04601222B7860
:10133000203B02FA03F0084202D004436D1CF6E79A
:1013400028782E2817D115F8010F44F004042A2814
:101350000ED06FF02F022878A0F1300109290AD8A9
:1013600008EB880102EB410100EB01086D1CF2E77C
:1013700057F8048B6D1C287869283FD006DC0028BC
:1013800071D063280CD0642804D137E0732811D0C1
:1013900075284ED052460D99904706F1010688E017
:1013A00017F8040B8DF8000000208DF80100E946C5
:1013B000012003E057F8049B4FF0FF3061074FF026
:1013C000000401D40AE0641C44450DDA8442FADBCF
:1013D00019F804100029F6D106E0641C8442FCDBF5
:1013E00019F804100029F8D1264404E019F8010B7B
:1013F00052460D999047641EF8D25AE001CF4FF043
:101400000A0B002804DAC0F100004FF02D0102E0C1
:10141000210504D52B218DF82410012103E0E107DB
:1014200005D02021F7E70DF1200908910CE00021FB
:10143000F9E701CF4FF00A0BF9E75946FEF73EFFF7
:1014400001F1300209F8012D0028F6D1ADEB0900B9
:1014500000F1200B600701D44FF00108D84503DDEF
:10146000A8EB0B0001E029E000208046002406E004
:1014700009A85246005D0D999047761C641C089897
:101480008442F5DB04E0302052460D999047761CEB
:10149000B8F10001A8F10108F5DC05E019F8010B2D
:1014A00052460D999047761CBBF10001ABF1010B40
:1014B000F4DC6D1C287800287FF432AF0FB0304682
:1014C000BDE8F08F092801000A68531C0B601070FA
:1014D0007047000070B50546304800EB05142068E1
:1014E000804700283ED02079052802DA05202071A7
:1014F00052E020790A2803DA2079401C20714BE061
:10150000A07A38B90120A07205EB4501491CC8B288
:1015100000F030FA208900283EDDE08821898842E9
:101520000DDAE088401C80B2E0802189884233D106
:1015300005EB4501C91CC8B200F01CFA2CE0E07AAA
:10154000002829DD207B401CC0B22073E17A88424C
:1015500022DB0020207305EB4501491CC8B200F0D6
:1015600009FA19E02079052802DD0520207110E034
:10157000207918B12079401E20710AE0A07A012854
:1015800007D10020A07205EB4501891CC8B200F00C
:10159000F1F90020E080207370BD0000A40000205D
:1015A0000B48807A0A4AD27A904201D100207047D3
:1015B0000748807A064A115C1046807A401CC0B207
:1015C00090720A2801DB002090720846EFE70000C5
:1015D0004401002001460020244A914201D101200B
:1015E00042E0234A914201D102203DE0214A91424A
:1015F00002D14FF4803037E01F4A914202D14FF4BC
:10160000003031E01D4A914202D14FF480202BE09E
:10161000B1F1804F01D1012026E0194A914201D158
:10162000022021E0174A914201D104201CE0164A11
:10163000914201D1082017E0144A914201D11020B3
:1016400012E0134A914201D120200DE0114A91424B
:1016500001D1402008E0104A914201D1802003E0EE
:101660000E4A914200D188157047000000000140E9
:101670000004014000400140004401400048014096
:101680000004004000080040000C00400010004032
:101690000014004000180040001C004000200040E2
:1016A00010B54FF44070FFF7B3F900F003F900F004
:1016B00003F800F0C1F810BD10B500F053F800F0C9
:1016C00001F810BD1CB501214FF4F270FFF7AAF923
:1016D00000208DF804008DF806008DF80700022028
:1016E0008DF80500C001009069461948FEF7D3FE49
:1016F0004FF40050009069461648FEF7CCFE4FF4B8
:101700000060009069461248FEF7C5FE0420009074
:1017100069461148FEF7BFFE0820009069460E4852
:10172000FEF7B9FE4FF40060009069460B48FEF7E3
:10173000B2FE8020009069460948FEF7ACFE4FF4E7
:101740000040009069460448FEF7A5FE1CBD00005D
:101750000020024000080240001C02400014024029
:10176000001802400021284A9172D17211730020A2
:1017700018E06421254A02EB001211810221234A5C
:1017800002EB001211710021204A02EB001291724B
:101790001E4A02EB0012D1721C4A02EB00121173B6
:1017A000411CC8B20A28E4DB642218490A870522D2
:1017B00081F83B206422A1F84820052281F84B20C3
:1017C0006422A1F85820052281F85B206422A1F848
:1017D0006820052281F86B200D490C4A11600D49E3
:1017E00011610D4911620D4911630D4911640D49D3
:1017F00011650D4911660D4911670D49C2F8801038
:101800000C49C2F89010704744010020A400002049
:10181000A5080008D5080008ED080008050900081B
:101820001D090008350900084D0900086509000870
:101830007D090008BD0800081CB501214FF4927015
:10184000FFF7F0F8012000F04BF8022000F048F814
:10185000032000F045F8042000F042F801208DF844
:10186000040000208DF806008DF8070003208DF895
:1018700005004FF48060009069460B48FEF70BFEB0
:101880008020009069460948FEF705FE4FF48070FD
:10189000009069460548FEF7FEFD04200090694669
:1018A0000348FEF7F8FD1CBD002002400014024072
:1018B0000008024010B5FFF775FCFEF781FEFFF748
:1018C00055F9FEF7A9FD10BD10B5002404E020462F
:1018D000FFF700FE601CC4B20A2CF8DB10BD00004C
:1018E000411EC8B220B94FF480610A4A118310E04A
:1018F000012803D18021084A11800AE0022803D17F
:10190000C101054A118004E0032802D10421034AE1
:10191000118070470020024018140240180802404D
:10192000012806D11049496981F480610E4A51614C
:1019300019E0022806D10D49096881F080010B4A9F
:10194000116010E0032806D10849096881F480710C
:10195000064A116007E0042805D10549096881F0AD
:101960000401034A11607047002002401414024031
:10197000140802400649C97A054A50541146C97AEA
:10198000491CC9B2D1720A2901DB0021D17270470A
:10199000440100202DE9FF5F04460D4691469A461A
:1019A0006F4884420BD06F48844208D06E4884420E
:1019B00005D06E48844202D06D48844207D120464B
:1019C000FFF708FE83460121FFF74CF806E02046AA
:1019D000FFF700FE83460121FFF734F82DB90021FF
:1019E0002046FFF7D2F9BDE8FF9F5D4884420BD047
:1019F0005C48844208D05C48844205D05B488442FD
:101A000002D05B48844202D15A48066802E0594835
:101A100000684608642D0AD242F20F7842F2107034
:101A2000B6FBF0F0B0FBF5F0401E87B213E040F6D5
:101A3000B830854209D24FF063086420B6FBF0F05D
:101A4000B0FBF5F0401E87B205E04FF00008B6FB92
:101A5000F5F0401E87B20297ADF804800020ADF883
:101A60000C00ADF806008DF80E0001A92046FFF726
:101A7000B3F901212046FFF779F9012211462046EA
:101A8000FFF7A0F901212046FFF77FF94FF0000B87
:101A90003348844202D03548844202D14FF0190BBA
:101AA0004FE0B4F1804F02D14FF01C0B49E03248B7
:101AB000844202D14FF01D0B43E03048844202D1F2
:101AC0004FF01E0B3DE02E48844202D14FF0320B06
:101AD00037E02C48844202D14FF0360B31E02A48DF
:101AE000844202D14FF0370B2BE02748844202D1C9
:101AF0004FF0370B25E02448844202D14FF0370BDA
:101B00001FE01848844202D02048844202D14FF09E
:101B10002C0B16E01448844202D14FF0180B10E051
:101B20001348844202D14FF01A0B0AE0184884424D
:101B300002D14FF02B0B04E01548844201D14FF045
:101B40002D0B8DF800B08DF801908DF802A00120CA
:101B50008DF803006846FEF71FFF00BF43E7000053
:101B600000000140000401400040014000440140E9
:101B70000048014028000020000400400008004008
:101B8000000C00400010004000140040001C004009
:101B9000001800402DE9F04105460E46174628463C
:101BA000FEF718FC04460CB9BDE8F081E06908B105
:101BB000E06980473A4631462046FFF7B9FA00BF50
:101BC000F2E713B50446012201A92046FFF7E2FF20
:101BD0001CBD70B504460D46E1B20020FFF7F1FFD1
:101BE000204670BD012080F3108800BFFFF758FD2C
:101BF00000F018FCFEF78AFB00F042FD00BFFEE794
:101C000010B504460E48006844600E4800688442DF
:101C100007D20B480168091D0B48006800F03EFB25
:101C20000CE007480168091D0848006800F036FB11
:101C300007480068844201D20548046010BD0000D6
:101C40003C000020480000207800002074000020A4
:101C5000640000202DE9F04105460F461FB9A80099
:101C600000F0F4F900E03846064656B1582000F07E
:101C7000EDF904460CB1266304E0304600F07EFB2B
:101C800000E0002424B1A900A522206BFEF7F4FA9D
:101C90002046BDE8F081000070B523E000F032FD81
:101CA0001348006808B9012000E00020054601F053
:101CB00007F8BDB900F018FB0D48C068C468201DC6
:101CC00000F076FA0B480068401E0A4908600A488E
:101CD0000068401E0849086000F032FB204600F012
:101CE0000DF800BF044800680028D7D170BD00007F
:101CF00094220020440000204000002010B504463B
:101D0000206B00F03BFB204600F038FB10BD0000CC
:101D100030B54FF4F043174810F0070F05D0C01D41
:101D200020F00700134C041B1B1B0246124C2260C0
:101D30000024114D6C60D018083820F007000F4CBB
:101D4000206000240D4D2D686C600C4D2D682C60BA
:101D50001146441A4C60094C24680C60084D4C68CC
:101D60002C60084D4C682C604FF00044064D2C60F0
:101D700030BD0000BC2200208C0000207C00002030
:101D800084000020800000208800002000BFFFF7B2
:101D900083FF064800680128F9D94FF080500449B4
:101DA0000860BFF34F8FBFF36F8FF0E7F42100207F
:101DB00004ED00E02DE9F04704460F46164699462B
:101DC000DDF82080002507E0795D04F134004155FD
:101DD000785D00B902E06D1C102DF5D300BF002125
:101DE00043200155052E00D30426E662201D00F095
:101DF00052FA04F1180000F04EFA2461C6F1050011
:101E0000A06164620020E064206584F85400BDE8AD
:101E1000F087000010B5002407E004EB84010F4AAE
:101E200002EB810000F02AFA641C052CF5D30C4863
:101E300000F024FA0B4800F021FA0B4800F01EFADB
:101E40000A4800F01BFA0A4800F018FA0448094949
:101E5000086004480849086010BD0000F421002013
:101E6000582200206C220020802200209422002092
:101E7000A8220020740000207800002010B5014640
:101E8000164800E0006803688B42FBD302464368B3
:101E900013448B4204D143684C6823444360014699
:101EA0000A464B6813440468A34211D10C4C0368E2
:101EB0002468A34208D04B680468646823444B60DC
:101EC00003681B680B6005E0054B1B680B6001E0B5
:101ED00003680B60884200D0016010BD8C000020B8
:101EE0007C0000202DE9F04706460C469046002570
:101EF000206800284BD0204641684968416000F1C5
:101F0000080142688A4202D14168496841604168DB
:101F1000D1F80C9000BF204641684968416000F14B
:101F2000080142688A4202D14168496841604168BB
:101F3000CF6806EB4510076007F1340006EB45114A
:101F40004860786C06EB4511886006EB451080F818
:101F50000C80F86A06EB45110861B8F1030F05D152
:101F6000B86A18B1022006EB45110873002006EB91
:101F700045114861F86C06EB45118861386B00F03B
:101F800023F806EB451188836D1C4F45C3D12846C5
:101F9000BDE8F0870A490968096809B9012100E02C
:101FA000002121B14FF0FF31064A116006E00449DB
:101FB0000968C968C868034A416811607047000031
:101FC00074000020640000200246002101E0521C41
:101FD000491C1078A528FAD0890888B270470000FB
:101FE0000E480068401C01D1012000E0002050B9DB
:101FF00000BF102080F31188BFF34F8FBFF36F8FA6
:1020000000BF00BFFEE700BF102080F31188BFF3C0
:102010004F8FBFF36F8F00BF00BFFEE7940000201B
:1020200070B505460E4631462846FEF73EF928466D
:10203000FEF734F9044602E020202855641C0F2CDA
:10204000FAD300202855281970BD00002DE9F04171
:1020500004464FF0000800F055FB4648006808B9F8
:10206000FFF756FE4448006804426BD1D4B10834EF
:1020700014F0070F16D004F00700C0F10800044464
:1020800014F0070F01D1012000E0002050B900BF7B
:10209000102080F31188BFF34F8FBFF36F8F00BF05
:1020A00000BFFEE7002C4DD034480068844249D878
:1020B000334E3046056801E02E462D686868A04220
:1020C00002D228680028F7D12A480068854239D012
:1020D000306800F10808286830606868001B102824
:1020E00019D92F1917F0070F01D1012000E00020A6
:1020F00050B900BF102080F31188BFF34F8FBFF39A
:102100006F8F00BF00BFFEE76868001B78606C60DF
:102110003846FFF7B3FE194968680968081A174975
:1021200008600846006817490968884203D21348C6
:1021300000681449086010496868096808436860C5
:102140000020286000F0BCFD18F0070F01D101202D
:1021500000E0002050B900BF102080F31188BFF3C9
:102160004F8FBFF36F8F00BF00BFFEE74046BDE853
:10217000F08100007C00002088000020800000200A
:102180008C00002084000020001F4FF0807303604B
:10219000001F0160001F054B036014380260001F20
:1021A0006FF002030360203870470000E11F000851
:1021B00001460A69D1E901309860D1E9010358600C
:1021C0005068884201D1886850600020086110681A
:1021D000401E1060106870472DE9F04105468846A2
:1021E00016460024052700F08DFA1D48006880453A
:1021F00030D300BF7F1E07EB87021A4B03EB82012F
:1022000005EB44100122FFF76DFE0444002FF1D1CD
:1022100005EB4410022214490968FFF763FE0444E9
:1022200005EB4410022211490968FFF75BFE0444E4
:1022300005EB441004220E49FFF754FE044405EB5D
:10224000441003220B49FFF74DFE044416B10A481F
:102250000068306000F034FD2046BDE8F0810000E9
:1022600044000020F42100207400002078000020A9
:1022700094220020A82200201000002000F1080174
:1022800041604FF0FF31816000F10801C1600161E0
:1022900000210160704700210161704710B50246BE
:1022A0000B685C1C01D1106907E002F1080000E036
:1022B0004068446824689C42FAD944684C604C6881
:1022C000A160886041600A611468641C146010BDDC
:1022D00042684A6093688B609368596091600861B6
:1022E00003685B1C0360704700BF102080F31188F7
:1022F000BFF34F8FBFF36F8F00BF0F480068401CC4
:102300000D49086008460068012813D10B48006891
:1023100010F0FF0F01D1012000E0002050B900BFF4
:10232000102080F31188BFF34F8FBFF36F8F00BF72
:1023300000BFFEE7704700009400002004ED00E0BD
:102340000D48006850B900BF102080F31188BFF31A
:102350004F8FBFF36F8F00BF00BFFEE706480068D6
:10236000401E054908600846006820B9002080F337
:10237000118800BF00BF70479400002070B506466A
:102380003546002E3FD0083D2C461F49606809683D
:10239000084201D0012000E0002050B900BF102009
:1023A00080F31188BFF34F8FBFF36F8F00BF00BF63
:1023B000FEE7206808B9012000E0002050B900BF06
:1023C000102080F31188BFF34F8FBFF36F8F00BFD2
:1023D00000BFFEE70C4960680968084213D0206816
:1023E00088B90949606809688843606000F08AF923
:1023F0000649606809680844044908602046FFF7F8
:102400003DFD00F05DFC70BD8800002080000020D4
:1024100003484FF0E0214861072008617047000041
:102420003F90020010B50023022244F620610248CA
:10243000FFF7B0FA10BD00000010004070B5044670
:1024400000266CB31B48006808B9012000E000209A
:1024500050B900BF102080F31188BFF34F8FBFF336
:102460006F8F00BF00BFFEE700F04CF91248006814
:10247000051912480068001DFFF79AFE50B90F4871
:10248000006890F82C10012088400D4909688143AC
:102490000B4801602846FFF7B3FB00F011FC06462D
:1024A0003EB94FF0805007490860BFF34F8FBFF32C
:1024B0006F8F70BD68000020480000203C000020A5
:1024C0004C00002004ED00E0FEB505460020287019
:1024D000264800680290254909684801FFF7B6FDC3
:1024E0000446002C40D06A4620460299FFF774FE4D
:1024F000029064210098B0FBF1F000900098002851
:102500002FD00020019028E0019804EB4010806952
:102510000099B0FBF1F6019804EB401041682846A1
:10252000FFF77EFD05464EB1019804EB401033469F
:102530000FA182692846FEF7C5FE07E0019804EB6B
:1025400040100EA182692846FEF7BCFE2846FDF722
:10255000A5FE05440198401C0190DDE90101884277
:10256000D2D32046FFF70AFFFEBD00004400002042
:102570000925750909257525250D0A0009257509FF
:10258000093C3125250D0A0005E00220FFF7C8F9B6
:10259000C820FFF753FFF8E77FB5054600202870F5
:1025A0002A4800680390294909684801FFF74EFD51
:1025B0000446002C49D0002220460399FFF70CFE68
:1025C00003900020029039E0029804EB4010007B59
:1025D000012806D0022806D0032806D0042808D1F6
:1025E00005E0522607E0422605E0532603E0442694
:1025F00001E0002600BF00BF029804EB40104168D4
:102600002846FFF70DFD0546029804EB4010806850
:10261000029904EB4111898BCDE90010029804EB7B
:10262000401032460AA103692846FEF74BFE2846B1
:10263000FDF734FE05440298401C0290DDE90201DA
:102640008842C1D32046FFF799FE7FBD4400002099
:102650000925630925750925750925750D0A0000E9
:1026600006E00320FFF75CF94FF49670FFF7E6FEF3
:10267000F7E704E0FFF728F90A20FFF7DFFEF9E7A4
:102680001FB500200090019002900346802216A101
:102690000390174800F0B6F90446012C17D100BF8B
:1026A000102080F31188BFF34F8FBFF36F8F00BFEF
:1026B0004FF0FF300F49086001200F4908600020EB
:1026C0000E4908600E49086000F0FEF80BE054B9AE
:1026D00000BF102080F31188BFF34F8FBFF36F8FBF
:1026E00000BF00BFFEE71FBD49444C45000000008D
:1026F0008D1D0008640000205000002048000020CC
:102700001000002002480068401C01490860704722
:10271000680000202A48006818B101202949086093
:102720004CE00020274908602748006827490860D6
:10273000084600682649096888420BD92549096876
:1027400001F14C00C96C214A1268214B1B68D21A56
:10275000114401601D4800681D4908601E4800685A
:10276000B0FA80F0C0F11F0101EB81001B4A52F862
:10277000200008B1012000E0002050B900BF102067
:1027800080F31188BFF34F8FBFF36F8F00BF00BF7F
:10279000FEE701EB8102114B03EB820042685268B5
:1027A000426000F108024368934202D142685268D5
:1027B00042604268D268074B1A6000BF7047000051
:1027C0006800002058000020100000207000002049
:1027D0006C0000203C0000204C000020F421002070
:1027E000FEB023E0FEF7DCFE0446002C1BD0012CDB
:1027F00017D10FA0FEF756FD1AA0FEF753FD01A852
:10280000FFF7CAFE01A923A0FEF74CFD23A0FEF7A7
:1028100049FD01A8FFF758FE01A91EA0FEF742FDE1
:1028200000E000BF00BF1420FFF708FEDAE7000059
:102830003D3D3D3D3D3D3D3D3D3D3D3D3D3D3D3DC8
:102840003D3D3D3D3D3D3D3D3D3D3D3D3D3D3D3DB8
:102850003D3D3D3D3D3D3D3D3D3D3D3D3D3D3D3DA8
:102860003D0D0A00C8CECEF1C3FB20202020202041
:10287000C8CECEF1D7B4CCAC20D3C5CFC8BCB6201F
:102880002020CAA3D3E0D5BB20C8CECEF1D0F2BA67
:10289000C50D0A0025730D0A000000000D0AC8CE00
:1028A000CEF1C3FB20202020202020D4CBD0D0BCD0
:1028B000C6CAFD202020202020202020CAB9D3C352
:1028C000C2CA0D0A000000001CB54748006847490D
:1028D000884201D0012000E0002050B900BF102044
:1028E00080F31188BFF34F8FBFF36F8F00BF00BF1E
:1028F000FEE73D4800683D49491E884201D001205D
:1029000000E0002050B900BF102080F31188BFF311
:102910004F8FBFF36F8F00BF00BFFEE734490846FB
:1029200000780190FF200A46107008460078009059
:102930009DF8000000F0F0009DF80020904201D1C9
:10294000012000E0002050B900BF102080F3118862
:10295000BFF34F8FBFF36F8F00BF00BFFEE79DF83F
:10296000000000F01000234A10700720224A106077
:1029700009E021480068401E1F4A10609DF80000D1
:102980004006000E00909DF8000000F080008028B6
:10299000EFD0194800680002174A106010460088FE
:1029A00000F4E0601060124A019810700E48203068
:1029B000006840F470000C49203108600846006847
:1029C00040F070400860FFF723FD00200B490860CD
:1029D000FDF704FC0A48006840F0404008490860E0
:1029E000FDF7ECFB00201CBD00ED00E071C20F41C3
:1029F00000E400E0980000209C00002094000020EB
:102A000034EF00E02DE9FF4F81B0804616469A462C
:102A1000DDE90E5BB8F1000F0AD100BF102080F392
:102A20001188BFF34F8FBFF36F8F00BF00BFFEE76A
:102A3000052D01D2012000E0002050B900BF102078
:102A400080F31188BFF34F8FBFF36F8F00BF00BFBC
:102A5000FEE730461099FFF7FDF80446002C64D0DD
:102A6000701E216B01EB800929F0070919F0070F8F
:102A700001D1012000E0002050B900BF102080F3F8
:102A80001188BFF34F8FBFF36F8F00BF00BFFEE70A
:102A900000962A462046119B0299FFF78BF9524671
:102AA00041464846FFF770FB2060BBF1000F01D0A4
:102AB000CBF80040FFF718FC27480068401C264967
:102AC00008602648006840B9244804600846006849
:102AD00001280CD1FFF79EF909E02148006830B9C0
:102AE0001E480068C06AA84201D81C4804601D48FE
:102AF0000068401C1B49086008460068606494F840
:102B00002C100120884018490968084316490860BC
:102B1000E16A01EB8101154A02EB8100211DFFF7FB
:102B2000D7FB0127FFF70CFC01E04FF0FF37012F27
:102B30000ED10B48006858B108480068C06AA84226
:102B400006D238070A490860BFF34F8FBFF36F8F73
:102B5000384605B0BDE8F08F440000203C0000205E
:102B600050000020600000204C000020F4210020D4
:102B700004ED00E02DE9F0414FF000084548006801
:102B8000002879D144480068401C43490860084641
:102B9000066816BB41480068006808B9012000E0DB
:102BA000002050B900BF102080F31188BFF34F8F71
:102BB000BFF36F8F00BF00BFFEE738480768384893
:102BC0000068364908603648076036480068401C8F
:102BD00034490860FFF7DEF900BF334800688642D9
:102BE0003CD300BF2D480068006808B9012000E010
:102BF000002020B14FF0FF302B4908602DE027481E
:102C00000068C068C4686568AE4202D226480560A4
:102C100023E0201DFFF7CCFAA06A18B104F11800D8
:102C2000FFF7C6FA94F82C10012088401F49096864
:102C300008431E490860E16A01EB81011C4A02EB6E
:102C40008100211DFFF744FB1A49E06A0968C96A3F
:102C50008842C7D34FF00108C4E700BF1548006899
:102C6000C06A00EB8000124951F82000012808D901
:102C70004FF0010805E0FFE70F480068401C0E49CF
:102C800008600E48006808B14FF001084046BDE8F2
:102C9000F08100006800002048000020740000203F
:102CA000780000205C000020640000204C00002020
:102CB000F42100203C000020540000205800002097
:102CC00070B500253648006850B900BF102080F369
:102CD0001188BFF34F8FBFF36F8F00BF00BFFEE7B8
:102CE000FFF702FB2E480068401E2D490860084689
:102CF0000068002850D12B48006800284CD024E000
:102D00002948C068C46804F11800FFF751FA201D73
:102D1000FFF74EFA94F82C100120884023490968E7
:102D2000084322490860E16A01EB8101204A02EB75
:102D30008100211DFFF7CCFA1E49E06A0968C96AC3
:102D4000884202D301201C4908601748006808B96E
:102D5000012000E000200028D2D01848006878B197
:102D60000AE0FFF707FF10B101201349086013487C
:102D70000068401E11490860104800680028F0D122
:102D80000D480068012807D1012500070C4908609B
:102D9000BFF34F8FBFF36F8FFFF7D2FA284670BD96
:102DA0006800002044000020802200204C00002009
:102DB000F42100203C000020580000205400002096
:102DC00004ED00E0E42D000800000020A400000055
:102DD000EC120008882E0008A40000201CA20000AD
:102DE000FC120008000000000000000000000000CD
:102DF00000000000000000000000000000010203CD
:102E0000040102030406070809000000007A030A0F
:102E1000000000000000000001020304060708098A
:102E200000000000000000000000000000000000A2
:102E30000000000000000000000000000000000092
:102E40000000000000000000000000000000000082
:102E50000000000000000000000000000000000072
:102E60000000000000000000000000000000000062
:102E70000000000000000000AAAAAAAA00000000AA
:082E800000000000000000004A
:040000050800018965
:00000001FF
