:020000040800F2
:1000000058080020D9300008CD2E0008CF2E000857
:10001000FD2E0008FF2E0008012F00080000000040
:100020000000000000000000000000003D13000878
:10003000032F000800000000E51200083F0E000832
:100040005131000855310008593100085D31000870
:100050006131000865310008693100086D31000820
:100060007131000875310008793100087D310008D0
:100070008131000885310008893100088D31000880
:100080009131000895310008993100089D31000830
:10009000A1310008A5310008A9310008AD310008E0
:1000A000B1310008B5310008B9310008BD31000890
:1000B000C1310008C5310008C9310008CD31000840
:1000C000D1310008D5310008D9310008DD310008F0
:1000D000E1310008A91C0008B31C0008BD1C000881
:1000E000E5310008E9310008ED310008F131000880
:1000F000F5310008F9310008FD310008013200082F
:1001000005320008093200080D32000811320008DB
:100110001532000819320008C32B00081D320008F0
:100120002132000825320008293200082D3200084B
:100130003132000835320008393200083D320008FB
:100140004132000845320008493200084D320008AB
:10015000513200085532000859320008C71C000807
:100160005D3200086132000865320008693200081B
:100170006D320008713200087532000879320008CB
:100180007D320008813200082DE9FA4F83B0040067
:1001900015000E9E0F9FDDF84080DDF84490200092
:1001A000002807D1102080F31188BFF34F8FBFF3D1
:1001B0006F8FFEE7052E07D3102080F31188BFF361
:1001C0004F8FBFF36F8FFEE74146280080B200F0EB
:1001D000C7FB8246BAF1000F7AD0DAF83000ADB230
:1001E00010EB8500001F83465FEADB0B5FEACB0B59
:1001F0001BF00700002807D0102080F31188BFF300
:100200004F8FBFF36F8FFEE7280080B200904B4600
:1002100032000399504600F0E6FA049A210058464D
:1002200000F04AFDCAF80000002F01D0C7F800A076
:1002300000F0CFFDDFF860050068401CDFF85815BE
:100240000860DFF85805006800280BD1DFF84C057E
:10025000C0F800A0DFF840050068012811D100F0C7
:10026000F7FA0EE0DFF838050068002809D1DFF85A
:100270002C050068C06A864203D3DFF82005C0F869
:1002800000A0DFF820050068401CDFF818150860A2
:10029000DFF810050068CAF84400DFF80C050068B4
:1002A0000121DAF82C2091400843DFF8FC140860A3
:1002B0001AF10401DFF8F404DAF82C20142303FB0C
:1002C000020000F002FE0120019000F09FFD02E01C
:1002D0005FF0FF3001900198012813D1DFF8C004CE
:1002E000006800280ED0DFF8B4040068C06AB0428D
:1002F00008D25FF08050DFF8C4140860BFF34F8F5E
:10030000BFF36F8F019805B0BDE8F08F70B50400A2
:100310000026002C30D0DFF89C040068002807D0AD
:10032000102080F31188BFF34F8FBFF36F8FFEE76C
:1003300000F068F8DFF88004006820180500DFF896
:100340005C040068001D00F0E9FD00280ED1DFF814
:100350004C040068DFF8501409680122C06A12FAE0
:1003600000F031EA0000DFF840140860280000F0D7
:10037000CDFA00F04FF80600002E08D15FF0805053
:10038000DFF8D4150860BFF34F8FBFF36F8F70BDD8
:100390001FB5002003900020029000200190002053
:1003A000009000238022DFF804180FF21540FFF7B9
:1003B000EBFE0400012C1AD1102080F31188BFF34A
:1003C0004F8FBFF36F8F5FF0FF30DFF8E4170860E7
:1003D0000120DFF8CC1308600020DFF8DC13086090
:1003E0000020DFF88418086000F08DFC09E0002C84
:1003F00007D1102080F31188BFF34F8FBFF36F8FA9
:10040000FEE71FBDDFF8AC030068401CDFF8A41353
:100410000860704738B50025DFF8980300680028A9
:1004200007D1102080F31188BFF34F8FBFF36F8F78
:10043000FEE700F0CEFCDFF87C030068401EDFF82A
:1004400074130860DFF86C03006800285ED1DFF8E1
:1004500048030068002859D0DFF84C0700680028DE
:100460002AD0DFF84407C068C068040014F11800FF
:1004700000F054FD201D00F051FDDFF82C03006852
:100480000121E26A91400843DFF81C130860211D36
:10049000DFF81803E26A142303FB020000F015FDE5
:1004A000E06ADFF8F8120968C96A8842D4D30120EB
:1004B000DFF8C0170860CFE7DFF8A807006800285A
:1004C00014D0DFF8A007006800280FD000F071F802
:1004D000002803D00120DFF89C170860DFF88407AC
:1004E0000068401EDFF87C170860EAE7DFF8840741
:1004F000006801280AD1012005005FF08050DFF874
:1005000058140860BFF34F8FBFF36F8F00F07EFC6D
:10051000280032BD2DE9F04104000D00160000272F
:100520005FF00508FFF76EFF9B48006885423BD3EC
:10053000B8F1010801229D48142101FB080114EBC8
:10054000471000F03AFAC0190700B8F1000FEFD1D8
:100550000222DFF81807016814EB471000F02DFAAB
:10056000C01907000222DFF80807016814EB4710E2
:1005700000F023FAC01907000422DFF8341214EB4C
:10058000471000F01AFAC01907000322DFF8CC1355
:1005900014EB471000F011FAC0190700002E03D029
:1005A000DFF8D80600683060FFF734FF3800BDE898
:1005B000F0812DE9F0410026DFF8F80100680028FD
:1005C00040F08080DFF8F0010068401CDFF8E8119F
:1005D0000860DFF8E4010768002F24D1DFF88C06FB
:1005E00000680068002807D0102080F31188BFF34E
:1005F0004F8FBFF36F8FFEE7DFF87006006880460D
:10060000DFF86C060068DFF864160860DFF8600643
:10061000C0F80080DFF860060068401CDFF858165C
:10062000086000F038FADFF88805006887423CD39C
:10063000DFF8380600680068002805D15FF0FF3059
:10064000DFF86C15086030E0DFF820060068C0684D
:10065000C068040060680500AF4203D2DFF85005AF
:10066000056022E0201D00F059FCA06A002803D09C
:1006700014F1180000F052FC4B4800680121E26AB6
:100680009140084348490860211D4848E26A142304
:1006900003FB020000F019FCE06A40490968C96ADE
:1006A0008842C5D301200600C2E740483B4909689B
:1006B000C96A142202FB01000068022809D3012044
:1006C000060006E0DFF89C050068401CDFF8941582
:1006D0000860DFF8A0050068002801D001200600AE
:1006E0003000BDE8F08133480068002804D00120C4
:1006F000DFF8801508604DE00020DFF8781508600D
:10070000DFF864050068DFF878150860DFF8740525
:100710000068DFF86C15096888420BD21F48006832
:10072000C16CDFF85C2512685118DFF85825126893
:10073000891AC164DFF848050068DFF848150860C9
:1007400019490968B1FA81F1D1F11F01080017496F
:10075000142202FB00110968002907D1102181F33E
:100760001188BFF34F8FBFF36F8FFEE70F4A14233B
:1007700003FB002211004A6852684A604A6811F17E
:1007800008039A4202D14A6852684A604968C968B7
:10079000024A11607047000000A30020F0A2002070
:1007A0000CA300201CA3002008A30020F8A0002018
:1007B00088A2002024A3002004A3002004ED00E070
:1007C00010B5040000F06FF8DFF8C40400680228D8
:1007D000F8D35FF08050DFF8BC140860BFF34F8F90
:1007E000BFF36F8FEEE72DE9F04104000D00160016
:1007F0001F0000208046B8F1100F0CD218F8050039
:1008000018EB040181F8340018F80500002802D024
:1008100018F10108EFE7002084F84300052E01D30A
:1008200004200600E662201D0021016114F1180079
:10083000002101612461D6F10500A06164620020FD
:10084000E06400202065002084F85400BDE8F081B9
:1008500010B500200400052C08D2DFF83404142160
:1008600001FB040000F022FB641CF4E7DFF828041D
:1008700000F01CFBDFF8240400F018FBCA4800F06D
:1008800015FBDFF81C0400F011FB344800F00EFBF0
:10089000DFF80404DFF8D4130860DFF80004DFF8A1
:1008A000D013086010BD38B5DFF8F80300680028E1
:1008B0002BD0FFF7A7FDDFF8E8030068002801D17F
:1008C000012400E00024FFF7A5FD002CECD100F08E
:1008D00080FADFF8CC03C068C0680500281D00F06E
:1008E0001DFBDFF8C4030068401EDFF8BC1308607E
:1008F000DFF8B0030068401EDFF8A813086000F0BE
:1009000085FA280000F0BEF8CEE731BD10B504002E
:10091000DFF8780300684460DFF86C030068844205
:1009200009D2DFF868030068011DDFF8440300689E
:1009300000F0D7FA0EE0DFF854030068011DDFF87D
:100940002C03006800F0CDFA99480068844201D277
:100950009748046010BD000004ED00E09CA2002058
:100960002DE9F84304000D00002D04D1A4B2A0002D
:1009700000F0E8FA00E028000700002F0BD0582014
:1009800000F0E0FA0600002E01D0376305E03800E1
:1009900000F064FB01E000200600002E0AD0A4B2A3
:1009A000A7005FF0A508D6F83090424639004846C7
:1009B00000F008FC3000BDE8F2832DE9F8430400A4
:1009C0000D0016005FF00009286800284CD02800B0
:1009D000416849684160416810F10802914202D1C2
:1009E0004168496841604068C068804628004168A5
:1009F00049684160416810F10802914202D14168A2
:100A0000496841604068C06807005FEA49100751C3
:100A100017F1340014EB49114860786C14EB49115C
:100A2000886014EB49100673F86A14EB49110861E9
:100A3000F6B2032E06D1B86A002803D0022014EBC8
:100A400049110873002014EB49114861F86C14EB4C
:100A500049118861386B00F00AF814EB491188835A
:100A600019F101094745C1D14846BDE8F2830100AB
:100A700000200A78A52A02D1491C401CF9E7800809
:100A800080B2704710B50400206B00F0E7FA200038
:100A900000F0E4FA10BD754909680968002904D11D
:100AA0005FF0FF31424A116007E070490968C96888
:100AB000C968080041683E4A1160704770B504007B
:100AC0000D002900200000F0B5FB200000F0D4FB51
:100AD00006000F2E03D220203055761CF9E70020A7
:100AE0003055301970BD7FB5040000202070DFF84C
:100AF000B80100680390DFF8B0010068400100F021
:100B000021FA0500002D4ED0002203992800FFF79E
:100B100001FD0390002002900298039988423FD281
:100B2000029815EB4010007B012806D011D3032852
:100B300009D005D3042809D00BE0522006000AE0B2
:100B40004220060007E05320060004E0442006008F
:100B500001E000200600029815EB401041682000DB
:100B6000FFF7ACFF04000298029915EB4010806873
:100B7000019015EB4110808B0090029815EB40100E
:100B80000369F6B23200DFF82411200000F090FB78
:100B9000200000F071FB04190298401C0290BBE792
:100BA000280000F05BFA7FBD74A2002044310008E9
:100BB00020A3002070B584B0040000202070DFF86E
:100BC000E80000680290DFF8E0000068400100F0F3
:100BD000B9F90500002D44D001AA02992800FFF7B9
:100BE00099FC029001986421B0FBF1F0019001980A
:100BF000002833D0002000900098029988422DD21E
:100C0000009815EB401080690199B0FBF1F00600E7
:100C1000009815EB401041682000FFF74FFF0400DB
:100C2000002E0AD03300009815EB40108269DFF8DF
:100C30008010200000F03CFB08E0009815EB40100D
:100C40008269DFF87010200000F032FB200000F015
:100C500013FB04190098401C0090CDE7280000F019
:100C6000FDF97FBD10A30020ECA20020F4A200201B
:100C7000F8A2002014A3002018A30020ECA200205A
:100C80002CA3002028A3002004A30020F0A2002011
:100C9000F8A0002004ED00E04CA2002060A200209B
:100CA00088A20020FCA2002000A30020C830000879
:100CB0001831000824310008001F5FF080730360C2
:100CC000001F0160001F0FF215030360143802605B
:100CD000001F7FF0020303602038704766480068F9
:100CE00010F1010F07D0102080F31188BFF34F8F50
:100CF000BFF36F8FFEE7102080F31188BFF34F8F93
:100D0000BFF36F8FFEE700B583B05C4800685C49B5
:100D1000884207D1102080F31188BFF34F8FBFF3B3
:100D20006F8FFEE7554800685649884207D110206A
:100D300080F31188BFF34F8FBFF36F8FFEE75248E8
:100D400001780191FF21017001788DF800109DF864
:100D5000001011F010014D4A117007214C4A11602A
:100D60009DF8001009060AD549490968491E484AF4
:100D700011609DF8001049008DF80010F0E744491B
:100D800009680902424A11604149096811F4E061A9
:100D90003F4A1160019901703E48006850F47000AC
:100DA0003C4908603B48006850F070403949086091
:100DB00000F05BF800203049086000F0D9FA3648AE
:100DC000006850F040403449086000F0C5FA002047
:100DD0000EBD102080F31188BFF34F8FBFF36F8FCC
:100DE00025480068401C2449086023480068012801
:100DF0000BD12A480068000607D0102080F3118824
:100E0000BFF34F8FBFF36F8FFEE770471A4800683C
:100E1000002807D1102080F31188BFF34F8FBFF354
:100E20006F8FFEE714480068401E1349086012489F
:100E30000068002802D1002080F31188704780B537
:100E4000EFF31180102080F31188BFF34F8FBFF3B1
:100E50006F8FFFF7AEFB002803D05FF080500F4983
:100E60000860002080F3118801BD0D480D4908601D
:100E700007200D49086070470000002000ED00E0E9
:100E800071C20F4170C20F4100E400E031A30020A5
:100E9000E8A2002020ED00E034EF00E004ED00E0E7
:100EA0003F90020014E000E010E000E010F10801C3
:100EB00041605FF0FF31816010F10801C16010F105
:100EC0000801016100210160704742684A6093682F
:100ED0008B60936859609160086103685B1C0360D4
:100EE000704710B40B6813F1010F02D1046922009E
:100EF00008E010F10804220054682468A34201D3DA
:100F00005268F9E754684C604C68A1608A6051608F
:100F100008610468641C046010BC70470100086923
:100F20008A684B689A604A688B685A6042688A424D
:100F300001D18A68426000220A610268521E026082
:100F4000006870472DE9F04104005FF00008FFF7EA
:100F500059FA95480068002801D100F0BBF8934881
:100F60000068044269D1002C15D09148006804192A
:100F700014F0070F0FD014F1080014F00701441A01
:100F800014F0070F07D0102080F31188BFF34F8FA4
:100F9000BFF36F8FFEE7002C4FD086480068A04259
:100FA0004BD3854806008448006805006868A04265
:100FB00005D22868002802D02E002D68F6E77A486E
:100FC0000068854239D03068794909680818804638
:100FD000286830607648006840006968091B8842CC
:100FE00014D26019070017F00700002807D010205E
:100FF00080F31188BFF34F8FBFF36F8FFEE76868F0
:10100000001B78606C60380000F09BF8694800684D
:101010006968401A67490860664800686749096856
:10102000884203D2634800686449086068685F4981
:1010300009680843686000202860FFF7EBF918F0A2
:101040000700002807D0102080F31188BFF34F8FCE
:10105000BFF36F8FFEE74046BDE8F08170B5040036
:101060002600002C35D052480068361A35006868D2
:101070004E490968084207D1102080F31188BFF358
:101080004F8FBFF36F8FFEE72868002807D010202E
:1010900080F31188BFF34F8FBFF36F8FFEE768684F
:1010A00042490968084214D02868002811D16868AC
:1010B0003E49096888436860FFF7A4F93D48006825
:1010C000696808183B490860280000F03AF8FFF703
:1010D000A1F970BD30B44FF4F043394C220012F046
:1010E000070F05D0D21DD208D2009B1A344CE3184A
:1010F0001100314C216000242F4D6C605C182200DF
:101100002B4C2468121BD208D200274C22600024EA
:10111000254D2D686C600024234D2D682C6008003F
:10112000141A4460204C246804604468234D2C60E9
:101130004468204D2C605FF000441C4D2C6030BC96
:10114000704710B41C4B1A001368834201D2126816
:10115000FAE7110053685B18834204D1536844686E
:10116000E31853601000010043685B181468A34241
:1011700011D113680C4C2468A34208D0436814684A
:101180006468E318436013681B68036005E0064B5E
:101190001B68036001E013680360824200D01060A6
:1011A00010BC704700000000C8A20020D4A200209C
:1011B0004C310008CCA20020C0A20020D0A2002008
:1011C0005808002062F30F2262F31F42401810F00B
:1011D000030308D0C91A1FD3DB0748BF00F8012D4D
:1011E00028BF20F8022D130030B4144615461039DC
:1011F00028BF20E93C00FAD8490728BF20E90C00A5
:1012000048BF40F8042D890028BF20F8022D48BFB0
:1012100000F8012D30BC7047C91818BF00F8012D27
:10122000CB0728BF00F8012D70470268531C0360EC
:10123000117070475FEA000C830706D011F8013B7C
:1012400000F8013BB3B18307F8D10A68B2F101336A
:1012500023EA020313F0803F02BF40F8042B51F849
:10126000042FF3E711F8013B00F8013B13B111F82B
:10127000013BF9E76046704700F10103810704D0A4
:1012800010F8011B89B18107FAD10268B2F101316E
:10129000914311F0803F04BF50F8042FF6E710F897
:1012A000011B11B110F8011BFBE7C01A70470000C9
:1012B0000CB41CB5044604A801900A46009401AB86
:1012C000694607487844183000F06CF8009A00210D
:1012D000117000285CBF0098001B16BC5DF80CFB69
:1012E0004BFFFFFFEFF30980BFF36F8F244B1A68AA
:1012F0001EF0100F08BF20ED108A20E9F04F10609B
:1013000008B44FF0100080F31188BFF34F8FBFF384
:101310006F8FFFF7E8F94FF0000080F3118808BCE9
:1013200019680868B0E8F04F1EF0100F08BFB0EC65
:10133000108A80F30988BFF36F8F7047104B1968CC
:101340000868B0E8F04F80F30988BFF36F8F4FF063
:10135000000080F3118870470A480068006880F335
:10136000088862B661B6BFF34F8FBFF36F8F00DF9F
:10137000DFF81400016841F470010160704700005B
:10138000F0A2002008ED00E088ED00E070B5044612
:101390001E000846154604D015F8011BA047761E0E
:1013A000FAD170BD2DE9F04784B0824689461446D3
:1013B0001F46E84607E00123224649465046FFF70C
:1013C000E5FF8146641C207810B904B0BDE8F087C1
:1013D0002528F0D16078A41C2528014618D058286B
:1013E0005CD063280ED0642818BF692814D06F28F9
:1013F00054D0702858D073285DD0752818BF78282D
:101400004CD0E0E73868386050F8041B3860C9B247
:101410004846D0478146D6E73868386050F8045BC4
:101420003860002D03D52D214846D04781466420E1
:101430006F2808BF082205D040F02001782914BF8A
:101440000A2210220B216428AC4603D1002D48BF8C
:10145000CCF1000CBCFBF2F502FB15CC0CF1300614
:101460005FFA86FC4B1EBCF13A0FA4BFA0F15106F7
:10147000B44403F808C019465FEA050C01D00129FD
:10148000E8DA68460D184846D1F10B09C2D015F8C4
:10149000011BD047B9F10109F9D1BBE739683960BF
:1014A00051F8045B3960C3E73868386050F8045B72
:1014B00038607820BCE73868386050F8045B3860E2
:1014C0002846FFF7D9FE06004846A3D015F8011BB1
:1014D000D047761EFAD19DE780B500F071F800F094
:1014E00066F900F048F800F0EDFA01BD0100C9B25C
:1014F000002902D1DFF8D8071CE0C9B2012902D1C6
:10150000DFF8D00716E0C9B2022902D1DFF8C80718
:1015100010E0C9B2032901D100200BE0C9B20429AF
:1015200001D1002006E0C9B2052902D1DFF8AC07DD
:1015300000E000207047F8B504000D001600200000
:10154000C0B2FFF7D3FF0700002F0AD0F8690028C8
:1015500001D0F8698047320092B22900380000F0CB
:10156000EFFAF1BD13B50400012201A92000C0B2B9
:10157000FFF7E1FF13BD00B583B00121022000F0A9
:1015800066FC01208DF8040000208DF80600002084
:101590008DF8070003208DF80500042000906946AF
:1015A000DFF84C0700F092FC07BD0420DFF8441779
:1015B000088070470420DFF84017088070477047A4
:1015C000DFF81C07DFF808170860DFF83007DFF8DE
:1015D00000174860DFF82807DFF8F41688604FF43A
:1015E0008060DFF8EC1688814FF48060DFF8E01649
:1015F000C8810020DFF8D81608820020DFF8D01656
:1016000048820020DFF8C816C8820020DFF8C01624
:1016100008830020DFF8B81648830020DFF8B016F2
:1016200088820020DFF8A816C8610020DFF8A01625
:1016300008620020DFF898164862DFF8A806DFF895
:1016400094160860DFF8BC06DFF888164860DFF8FB
:10165000B806DFF8801688600120DFF878168881E8
:101660004FF40060DFF86C16C8810020DFF86416C4
:1016700008820020DFF85C1648820020DFF854164C
:10168000C8820020DFF84C1608830020DFF84416DB
:1016900048830020DFF83C1688820020DFF83416EB
:1016A000C8610020DFF82C1608620020DFF824163D
:1016B0004862DFF83406DFF820160860DFF84C06D1
:1016C000DFF814164860DFF84806DFF80C1688606B
:1016D0004FF48060DFF8001688814FF48060DFF8F7
:1016E000F815C8810020DFF8F01508820020DFF827
:1016F000E81548820020DFF8E015C8820020DFF8F6
:10170000D81508830020DFF8D01548830020DFF8C3
:10171000C8158882DFF8FC05DFF8BC15C861DFF862
:10172000F805DFF8B4150862DFF8F005DFF8A81552
:101730004862DFF8B805DFF8A4150860DFF8E005B7
:10174000DFF898154860DFF8DC05DFF89015886051
:101750004FF48060DFF8841588814FF48060DFF8F3
:101760007C15C8810020DFF8741508820020DFF89E
:101770006C1548820020DFF86415C8820020DFF86D
:101780005C1508830020DFF8541548830020DFF83B
:101790004C1588820020DFF84415C8610020DFF86E
:1017A0003C1508620020DFF834154862704700B528
:1017B00087B00121012000F04AFB0121102000F038
:1017C00066FB07220921DFF8600500F0D4FB072241
:1017D0000A21DFF8540500F0CEFB00208DF806004A
:1017E00001208DF8070002208DF804004FF40070EE
:1017F000009002208DF805006946DFF82C0500F006
:1018000065FB02208DF804004FF48060009069466B
:10181000DFF8140500F05AFB5FF4E130029000207D
:10182000ADF80C000020ADF80E000020ADF810005F
:101830000020ADF814000C20ADF8120002A9DFF86A
:10184000A00400F0C5FB012240F22551DFF890040E
:1018500000F052FC0121DFF8880400F037FC402141
:10186000DFF87C0400F073FC0121012000F0EFFAA6
:1018700001215FF4003000F0FBFA07220321DFF8BA
:10188000A80400F078FB00208DF8060001208DF8F8
:10189000070002208DF8040002208DF804000820C3
:1018A000009002208DF805006946DFF87C0400F006
:1018B0000DFB4FF4165002900020ADF80C000020F4
:1018C000ADF80E000020ADF810000020ADF81400B7
:1018D0000420ADF8120002A9DFF8080400F078FB3C
:1018E000012240F22551DFF8FC0300F005FC012144
:1018F000DFF8F00300F0EAFB4021DFF8E80300F036
:1019000026FC0121022000F0A2FA01208DF804003B
:1019100000208DF8060000208DF8070003208DF8C8
:101920000500042000906946DFF8C40300F0CEFAF9
:101930000121022000F08BFA01215FF4802000F0E9
:1019400097FA07220A21DFF8A80300F014FB072208
:101950000B21DFF89C0300F00EFB00208DF8060041
:1019600001208DF8070002208DF804004FF48060FC
:10197000009002208DF805006946DFF8740300F03E
:10198000A5FA02208DF804004FF40060009069462B
:10199000DFF85C0300F09AFA4FF416500290002032
:1019A000ADF80C000020ADF80E000020ADF81000DE
:1019B0000020ADF814000C20ADF8120002A9CA48AE
:1019C00000F006FB012240F22551C74800F094FBCD
:1019D0000121C54800F07AFB4021C34800F0B7FB65
:1019E0000121442000F033FA0121202000F04FFAB9
:1019F00008220E21CD4800F0BEFA08220721CC486B
:101A000000F0B9FA08220821C84800F0B4FA082208
:101A10000F21C64800F0AFFA00208DF80600012023
:101A20008DF8070002208DF804004FF480400090EC
:101A300002208DF805006946BC4800F047FA0220F4
:101A40008DF80400802000906946B94800F03EFA05
:101A500002208DF804004FF4807000906946B3486E
:101A600000F034FA02208DF804004FF4004000909A
:101A70006946AE4800F02AFA5FF4E1300290002097
:101A8000ADF80C000020ADF80E000020ADF81000FD
:101A90000020ADF814000C20ADF8120002A9934804
:101AA00000F096FA012240F22551904800F024FB04
:101AB00001218E4800F00AFB40218C4800F047FBD2
:101AC00007B000BD80B525208DF8000001208DF8FD
:101AD000010000208DF8020001208DF80300684607
:101AE00000F079FB26208DF8000001208DF8010020
:101AF00000208DF8020001208DF80300684600F0F8
:101B00006AFB27208DF8000001208DF801000020DD
:101B10008DF8020001208DF80300684600F05BFBA1
:101B200047208DF8000001208DF8010000208DF87D
:101B3000020001208DF80300684600F04CFB01BD57
:101B4000F8B504000D00160000200700BFB2B6B2C1
:101B5000B74226D2012080F31088A08AADF8000099
:101B6000002080F31088BDF80000A1898842F1D2DE
:101B7000BFB2785D6168228A5054012080F31088DA
:101B8000208A401C2082A18980B2884201D3002093
:101B90002082A08A401CA082002080F310887F1C35
:101BA000D4E7012240F22771206800F0A5FAF1BDC8
:101BB00038B5040040F22551206800F0CEFA002824
:101BC0001DD0206800F094FA0500A068E18A0D5449
:101BD000E08A401CE082E18980B2884201D3002083
:101BE000E082608BE189884202D2608B401C608376
:101BF000606A002803D02800C0B2616A884740F2BA
:101C00002771206800F0A9FA002823D0A08A0028B4
:101C10000CD1002240F22771206800F06DFA0122F9
:101C200040F22661206800F067FA3CE06068618A53
:101C3000095C89B2206800F057FA608A401C608213
:101C4000A18980B2884201D300206082A08A401E10
:101C5000A08228E040F22661206800F07EFA002889
:101C600021D0A08A00280BD1002240F226612068F2
:101C700000F042FA206A002815D0206A804712E05E
:101C80006068618A095C89B2206800F02DFA608A78
:101C9000401C6082A18980B2884201D3002060820A
:101CA000A08A401EA08231BD80B50948FFF780FFA1
:101CB00001BD80B50748FFF77BFF01BD80B5064831
:101CC000FFF776FF01BD80B50448FFF771FF01BD46
:101CD000ACA10020D4A10020FCA1002024A200205F
:101CE0000010014000440040004800400014014042
:101CF00000040240180402401A04024058880020E0
:101D0000588C002030A300205880002058900020DC
:101D100058940020AB150008B5150008BF15000841
:101D200058980020589C00200000024000180240F3
:101D30000008024038B504000D0020000100C9B2BF
:101D40000020FFF70FFC200032BD0000F0B400219E
:101D500000220023022400250226DFF850713F688C
:101D600017F00C0739000F00002F04D0042F06D005
:101D7000082F08D03CE0DFF83C7107603BE0DFF85B
:101D80003871076037E0DFF828713F68C7F3805784
:101D90003D00DFF81C713F6817F03F073E00002D43
:101DA0000DD0DFF81471B7FBF6F7DFF804C1DCF8EB
:101DB00000C0CCF3881C0CFB07F73B000CE0DFF8FD
:101DC000F470B7FBF6F7DFF8E8C0DCF800C0CCF33E
:101DD000881C0CFB07F73B00DFF8D4703F68C7F3A3
:101DE00001477F1C7F003C00B3FBF4F7076002E073
:101DF000DFF8C0700760DFF8B4703F6817F0F007D5
:101E000039000909DFF8B470CF5D3A000768D740A0
:101E10004760DFF898703F6817F4E0573900890A87
:101E2000DFF89870CF5D3A004768D7408760DFF8E9
:101E30007C703F6817F460473900490BDFF87C700D
:101E4000CF5D3A004768D740C760F0BC7047C9B261
:101E5000002907D0DFF8682012680243DFF86030FD
:101E60001A6004E0164A12688243154B1A607047E4
:101E7000C9B2002905D0134A12680243114B1A60F7
:101E800004E0104A126882430E4B1A607047C9B2D0
:101E9000002905D00C4A126802430B4B1A6004E07B
:101EA000094A12688243084B1A607047083802409A
:101EB000043802400024F40040787D010400002032
:101EC000303802404038024044380240F0B400222A
:101ED0000023002400252A00102A4AD2012595401B
:101EE0002B000D681D402C009C4240D10568032644
:101EF0001700FFB27F00BE40B543056005680E794C
:101F00001700FFB27F00BE40354305600D79012DFB
:101F100002D00D79022D1AD1856803261700FFB271
:101F20007F00BE40B543856085684E791700FFB2DB
:101F30007F00BE4035438560456801269640B54325
:101F4000456045688E799640B6B235434560C568B0
:101F500003261700FFB27F00BE40B543C560C568C9
:101F6000CE791700FFB27F00BE403543C560521CDA
:101F7000B2E7F0BC7047F0B400230024D2B211F0F5
:101F80000705EDB2AD0012FA05F52B0089B2CD10B0
:101F900010EB850589B2CE1010EB8606366A0F2746
:101FA00011F0070C5FFA8CFC5FEA8C0C17FA0CF747
:101FB000BE432E6289B2CD1010EB85052D6A1D43FC
:101FC0002C0089B2CD1010EB85052C62F0BC704757
:101FD0002DE9F04385B004000D005FF000090026F4
:101FE00000275FF00008A8890028208A814639F47C
:101FF0004059E88850EA0909A4F81090A089814660
:10200000314810EA0909A8882989084369890843E1
:1020100050EA0909A4F80C90A08A814639F4407965
:10202000A88950EA0909A4F814906846FFF78EFEC3
:102030002348844202D02348844202D103980600F8
:1020400001E002980600A089000408D5192000FBD1
:1020500006F029684900B0FBF1F0070007E01920FD
:1020600000FB06F029688900B0FBF1F0070064204E
:10207000B7FBF0F0000181465FEA1910642101FB13
:1020800010708046A08900040AD55FEAC80032308B
:102090006421B0FBF1F010F0070050EA090909E0F3
:1020A0005FEA081032306421B0FBF1F010F00F004D
:1020B00050EA0909A4F8089005B0BDE8F0830000D3
:1020C0000010014000140140F3E9FFFFC9B20029EC
:1020D00004D0828952F40052828104E082894DF654
:1020E000FF731A4082817047CA05D20D8280704703
:1020F0008088C005C00D7047F0B40023002400257F
:10210000002689B240F66A17B94206000F00FFB2F6
:102110007F09FFB23B0089B211F01F073C00012785
:10212000A7403D00012B01D10C3604E0022B01D168
:10213000103600E01436D2B2002A03D037682F439D
:10214000376002E03768AF433760F0BC704789B250
:102150008A0589B2CA430280704770B40300002424
:1021600000260025002089B240F66A1291420A003A
:10217000D2B25209D2B2150089B211F01F02160074
:10218000012212FA06F6012D02D19A89164006E0C4
:10219000022D02D11A8A164001E09A8A16400A00DE
:1021A00092B2120A92B21400012212FA04F41A88AE
:1021B0001440002E04D0002C02D00122100001E0B7
:1021C00000221000C0B270BC704700001C490143DF
:1021D0001C4A1160704770B4002300210F22C4789C
:1021E000002C21D0174C246814F4E064D4F5E0648A
:1021F000240A2300D3F104042100D2B21A41447806
:102200008C4023008478144023431B010E4C057836
:102210002B550124057815F01F05AC400B4D0678B1
:10222000761145F8264009E00124057815F01F05D0
:10223000AC40074D0678761145F8264070BC7047D3
:102240000000FA050CED00E000E400E000E100E031
:1022500080E100E0DFF87C030068C00501D40120C4
:1022600000E000207047DFF870030068800401D4AC
:10227000012000E000207047DFF8580300680005E7
:1022800001D4012000E000207047DFF8500300680F
:10229000400701D4012000E000207047DFF83C0334
:1022A0000068000701D4012000E000207047DFF83B
:1022B00030030068000501D4012000E000207047D1
:1022C000DFF820030068000601D4012000E00020B0
:1022D0007047DFF808030068000401D4012000E023
:1022E0000020704780B5FFF7B5FF002805D0FFF745
:1022F000BAFF002801D0012000E0002002BD80B517
:10230000FFF7A8FF002805D0FFF7ADFF002801D098
:10231000012000E0002002BD80B500F07DF800F053
:1023200032F801BDDFF8C012DFF8BC22D27A505477
:10233000DFF8B412C97A491CDFF8AC22D172AA497D
:10234000C97A0A2902DB0021A74AD1727047A64840
:10235000807AA54AD27A904201D1002012E0A248A8
:10236000A14A927A105C01009F48807A401C9E4AE4
:1023700090729D48807A0A2802DB00209A4A907267
:102380000800C0B2704700B583B001214FF4F2706D
:10239000FFF75DFD00208DF8040000208DF8060099
:1023A00000208DF8070002208DF805004FF48070A2
:1023B000009069468E48FFF789FD4FF40050009069
:1023C00069468C48FFF782FD4FF400600090694633
:1023D0008748FFF77BFD0420009069468648FFF799
:1023E00075FD0820009069468348FFF76FFD4FF4A4
:1023F0000060009069468148FFF768FD80200090EA
:1024000069467F48FFF762FD4FF40040009069463F
:102410007948FFF75BFD07BD0021734A91720021E7
:10242000714AD1720021704A117300210800C0B2B4
:102430000A281FDA64216D4AC0B212EB0012118122
:1024400002216A4AC0B212EB001211710021674AE0
:10245000C0B212EB001291720021644AC0B212EBBA
:102460000012D1720021614AC0B212EB0012117346
:10247000401CDCE764215D4A118705215B4A82F834
:102480003B106421594AA2F848100521574A82F8A6
:102490004B106421554AA2F858100521534A82F87E
:1024A0005B106421514AA2F8681005214F4A82F856
:1024B0006B1054494D4A116053494C4A11615349BC
:1024C0004A4A11625249494A11635249474A1164C2
:1024D0005149464A11655149444A11665049434A97
:1024E00011675049414AC2F880104F493F4AC2F82B
:1024F0009010704738B504003C48E4B210EB04106B
:10250000050028688047002845D02879052802DA88
:10251000052028715DE028790A2803DA2879401C13
:10252000287156E0A87A002809D10120A872E4B2E7
:10253000032000FB04F0401CC0B2FFF7F3FE288923
:10254000002846D0E888298988420FD2E888401CB4
:10255000E880E888298988423BD1E4B2032000FB67
:1025600004F0C01CC0B2FFF7DDFE32E0E87A0028BC
:102570002FD0287B401C2873287BE97A884228D3F7
:1025800000202873E4B2032000FB04F0401CC0B21A
:10259000FFF7C8FE1DE02879062802DB0520287118
:1025A00013E02879002803D02879401E28710CE018
:1025B000A87A012809D10020A872E4B2032000FB08
:1025C00004F0801CC0B2FFF7ADFE0020E8800020C0
:1025D000287331BD1020024010080240101C024038
:1025E0001014024010180240B0A2002058A0002091
:1025F0000020024000080240001C0240001402407B
:1026000000180240552200086722000879220008BD
:102610008B2200089D220008AF220008C12200087A
:10262000D3220008E5220008FF22000810B5002090
:102630000400E4B20A2C05DA2000C0B2FFF75AFF0A
:10264000641CF6E710BD000001000020DFF8A022A6
:10265000914202D1012210005CE0DFF89822914201
:1026600002D10222100055E0DFF88C22914203D102
:102670005FF4803210004DE0DFF88022914203D1F8
:102680005FF40032100045E0DFF87422914203D17C
:102690005FF4802210003DE0B1F1804F02D10122B1
:1026A000100037E0DFF85C22914202D102221000D4
:1026B00030E0DFF85422914202D10422100029E0D8
:1026C000DFF84822914202D10822100022E0DFF810
:1026D0004022914202D1102210001BE0DFF8342288
:1026E000914202D12022100014E0DFF82C22914206
:1026F00002D1402210000DE0DFF82022914202D1E9
:102700008022100006E0DFF81822914202D14FF437
:102710008072100070472DE9F04F85B004000D0065
:1027200016001F00724884420BD07248844208D0C1
:102730007148844205D07148844202D07048844276
:1027400006D12000FFF780FF0121FFF7A0FB05E085
:102750002000FFF779FF0121FFF78AFB002D04D14C
:102760000021200000F023F9BFE0614884420BD033
:102770006048844208D06048844205D05F48844263
:1027800002D05F48844203D166480068824603E075
:102790006448006840088246642D0BD242F20F70F4
:1027A000814642F21070BAFBF0F0B0FBF5F0401E2B
:1027B000804613E040F6B830854209D26320814656
:1027C0006420BAFBF0F0B0FBF5F0401E804605E057
:1027D00000208146BAFBF5F0401E80461FFA88F8BB
:1027E000CDF80880ADF804900020ADF80C00002072
:1027F000ADF8060000208DF80E0001A9200000F0C1
:1028000093F80121200000F0C4F8012201212000EA
:1028100000F0EAF80121200000F0C9F85FF0000B99
:102820003348844202D03548844202D1192083467D
:102830004FE0B4F1804F02D11C20834649E031487B
:10284000844202D11D20834643E02F48844202D1B6
:102850001E2083463DE02D48844202D1322083462B
:1028600037E02B48844202D13620834631E02948A4
:10287000844202D1372083462BE02648844202D18D
:102880003720834625E02348844202D137208346FF
:102890001FE01848844202D02048844202D12C20F4
:1028A000834616E01448844202D11820834610E083
:1028B0001348844202D11A2083460AE01648844213
:1028C00002D12B20834604E01348844201D12D20FD
:1028D00083468DF800B08DF801608DF802700120FC
:1028E0008DF803006846FFF776FC05B0BDE8F08F71
:1028F000000001400004014000400140004401404C
:10290000004801400004004000080040000C004066
:10291000001000400014004000180040001C00405F
:102920000020004014000020002203881A00274BDA
:1029300098420ED02B4B98420BD0B0F1804F08D06C
:10294000234B984205D0234B984202D0224B984209
:1029500004D14FF68F731A404B881A431F4B98428D
:1029600007D01F4B984204D04FF6FF431A400B8903
:102970001A4302804B68C3620B880385134B98424D
:1029800002D0184B984201D18B7A038601238382AF
:102990007047C9B2002904D0028852F08002028038
:1029A00004E002884FF67F731A4002807047C9B274
:1029B000002904D0028852F00102028004E002885B
:1029C0004FF6FE731A40028070470000000001407D
:1029D0000004004000080040000C004000100040CF
:1029E0000014004000040140D2B2002A03D08389C1
:1029F0000B43838102E083898B438381704730B42A
:102A00000200002000230024158A0D402B00958928
:102A10000D402C009BB2002B05D0A4B2002C02D09C
:102A20000125280001E000252800C0B230BC704715
:102A300089B2CA430282704780B5012080F31088B2
:102A400000F0AAF800F0B4F800F046F8FDF7A0FC9A
:102A5000FEE730B5FDB00400FFF779FC0500EDB2EC
:102A6000002D1AD0EDB2012D17D13B4800F0BEF871
:102A70003A4800F0BBF86846FEF735F86946384832
:102A800000F0B4F8374800F0B1F86846FEF792F865
:102A90006946334800F0AAF8FFE71420FDF736FC3A
:102AA000DAE710B50400022000F00BF9C820FDF7AA
:102AB0002DFCF8E710B50400032000F002F94FF4F4
:102AC0009670FDF723FCF7E710B50400FFF7AEFDA5
:102AD0000A20FDF71BFCF9E700B585B00020039044
:102AE00000200290204801900120009000234FF424
:102AF00000721E491E48FDF747FB0020039000208E
:102B000002901C4801900220009000234FF40072B4
:102B100019491A48FDF738FB002003900020029065
:102B2000174801900320009000234FF400721549CC
:102B30001548FDF729FB0020039000200290134860
:102B400001900420009000234FF4007210491148B6
:102B5000FDF71AFB05B000BD3C2F0008702F0008E0
:102B60003C310008A02F0008D8A20020E83000085F
:102B7000532A0008DCA20020F4300008A32A000831
:102B8000E0A2002000310008B52A0008E4A20020DD
:102B90000C310008C92A000880B54FF44070FFF7D7
:102BA00015FBFEF799FCFFF7B7FB00F031F801BD0C
:102BB00080B50023022244F620610A48FFF7ABFDEE
:102BC00001BD80B501210748FFF719FF002808D093
:102BD00005480068401C0449086001210148FFF7CE
:102BE00027FF01BD00100040ECA200200EB400B58C
:102BF00082B003A9009102466B4601210348784444
:102C00000A30FEF7CFFB06BC5DF810FB990400000C
:102C100000B583B001214FF49270FFF718F901203D
:102C200000F030F8022000F02DF8032000F02AF820
:102C3000042000F027F801208DF8040000208DF812
:102C4000060000208DF8070003208DF805004FF4E2
:102C50008060009069462F48FFF738F98020009087
:102C600069462D48FFF732F94FF4807000906946AD
:102C70002948FFF72BF90420009069462748FFF701
:102C800025F907BD401EC0B2002804D14FF4806171
:102C9000234A118014E0C0B2012803D18021214AC7
:102CA00011800DE0C0B2022804D14FF480711D4A9A
:102CB000118005E0C0B2032802D104211A4A118014
:102CC0007047C0B2012806D11849096891F48061A3
:102CD000164A11601CE0C0B2022806D114490968E6
:102CE00091F08001124A116012E0C0B2032806D1AF
:102CF0000F49096891F480710D4A116008E0C0B273
:102D0000042805D10B49096891F00401094A1160B2
:102D100070470000002002400014024000080240FA
:102D200018200240181402401808024014200240E3
:102D3000141402401408024080B54848006850F45A
:102D40007000464908604648006850F00100444958
:102D50000860002043490860414800684249084033
:102D60003F4908604148424908603D48006830F4E6
:102D700080203B49086000203E49086000F005F8CB
:102D80005FF000603C49086001BD82B00020019006
:102D9000002000903248006850F4803030490860CC
:102DA0002F48006810F4003000900198401C0190FA
:102DB0000098002803D10198B0F5A04FF0D1284821
:102DC0000068800302D50120009001E000200090FF
:102DD000009801283ED12948006850F080502749CA
:102DE00008602748006850F44040254908601D48A5
:102DF00000681C4908601B48006850F400401949ED
:102E000008601848006850F4A050164908601D4832
:102E1000174908601248006850F080701049086037
:102E20000F4800688001FBD540F205701649086024
:102E30000C480068800880000A490860094800685A
:102E400050F00200074908600648006810F00C00C6
:102E50000828F9D102B070470000000088ED00E0BA
:102E60000038024008380240FFFFF6FE1030002410
:102E7000043802400C38024008ED00E040380240BF
:102E80000070004019544007003C024019E050F81F
:102E9000041BCB0744BFA9F101035918121F0023DB
:102EA000042A41F8043BF9D25FEA827C0B4604D540
:102EB0004FF0000CA1F800C09B1CD10744BF0021BB
:102EC000197050F8042B002AE1D170477047084868
:102ED00000221100C9B22A2909D2C9B20A5C054BE5
:102EE0001A80054A12885206FBD5491CF2E7FEE714
:102EF000CC2F00080410014000100140FEE7FEE75F
:102F0000FEE7704730B5016842688468091801EB34
:102F10005203D20748BF4C440C30994200D130BD17
:102F200011F9012B11F8015B002A04F8015B02D5AD
:102F3000521CF9D1F1E7521EF4D5EEE73D3D3D3D7F
:102F40003D3D3D3D3D3D3D3D3D3D3D3D3D3D3D3DB1
:102F50003D3D3D3D3D3D3D3D3D3D3D3D3D3D3D3DA1
:102F60003D3D3D3D3D3D3D3D3D3D3D3D3D0D0A0031
:102F7000C8CECEF1C3FB202020202020C8CECEF129
:102F8000D7B4CCAC20D3C5CFC8BCB6202020CAA3B0
:102F9000D3E0D5BB20C8CECEF1D0F2BAC50D0A0021
:102FA0000D0AC8CECEF1C3FB20202020202020D443
:102FB000CBD0D0BCC6CAFD2020202020202020203D
:102FC000CAB9D3C3C2CA0D0A000000000D0A456E7B
:102FD00074657220486172644661756C745F486103
:102FE0006E646C65722C2053797374656D20486132
:102FF0006C742E0D0A00000010B507497944183191
:10300000064C7C44163404E00A68081D51188847B1
:103010000146A142F8D110BD2C000000480000007C
:103020004EF68851CEF20001086840F47000086046
:10303000BFF34F8FBFF36F8F4FF00070E1EE100AB8
:103040007047000049FEFFFFDC9A0000580800208E
:1030500000000000B1FEFFFF2C0200006E00000027
:10306000000000200120C046002801D0FFF7C4FF67
:103070000020C046C046FFF7DFFC00F000F800F07B
:1030800001B800000746384600F002F8FBE70000F0
:1030900080B5C046C046024A11001820ABBEFBE70F
:1030A0002600020038B504460D46284600F006F812
:1030B000A84218BF0024204632BD00000149FEF797
:1030C00039BE00BF180000200925630925750925B0
:1030D000750925750D0A0000014880470148004721
:1030E000392D000831310008765461736B557365D2
:1030F00072494600765461736B4C454400000000F1
:10310000765461736B4D736750726F0076546173C0
:103110006B537461727400000925750909257525C2
:10312000250D0A0009257509093C3125250D0A00E0
:10313000C046C046FFF774FFFFF794FF25730D0AE2
:103140000000000049444C45000000000800000059
:10315000FFF7FEBFFFF7FEBFFFF7FEBFFFF7FEBFA3
:10316000FFF7FEBFFFF7FEBFFFF7FEBFFFF7FEBF93
:10317000FFF7FEBFFFF7FEBFFFF7FEBFFFF7FEBF83
:10318000FFF7FEBFFFF7FEBFFFF7FEBFFFF7FEBF73
:10319000FFF7FEBFFFF7FEBFFFF7FEBFFFF7FEBF63
:1031A000FFF7FEBFFFF7FEBFFFF7FEBFFFF7FEBF53
:1031B000FFF7FEBFFFF7FEBFFFF7FEBFFFF7FEBF43
:1031C000FFF7FEBFFFF7FEBFFFF7FEBFFFF7FEBF33
:1031D000FFF7FEBFFFF7FEBFFFF7FEBFFFF7FEBF23
:1031E000FFF7FEBFFFF7FEBFFFF7FEBFFFF7FEBF13
:1031F000FFF7FEBFFFF7FEBFFFF7FEBFFFF7FEBF03
:10320000FFF7FEBFFFF7FEBFFFF7FEBFFFF7FEBFF2
:10321000FFF7FEBFFFF7FEBFFFF7FEBFFFF7FEBFE2
:10322000FFF7FEBFFFF7FEBFFFF7FEBFFFF7FEBFD2
:10323000FFF7FEBFFFF7FEBFFFF7FEBFFFF7FEBFC2
:10324000FFF7FEBFFFF7FEBFFFF7FEBFFFF7FEBFB2
:10325000FFF7FEBFFFF7FEBFFFF7FEBFFFF7FEBFA2
:10326000FFF7FEBFFFF7FEBFFFF7FEBFFFF7FEBF92
:10327000FFF7FEBFFFF7FEBFFFF7FEBFFFF7FEBF82
:10328000FFF7FEBFFCAAFC002F01020304010203AA
:103290000406070809007A030A020401015CA10080
:1032A00020ACA100205CA100205CA100205CA1005A
:0B32B00020550000203C000020E00042
:04000005080031318D
:00000001FF
